:020000040800F2
:1000000088720020312B0008B9010008BB010008EC
:10001000BF010008C3010008C7010008000000007C
:10002000000000000000000000000000CB010008FC
:10003000CD01000800000000CF010008D101000838
:100040004B2B00084B2B00084B2B00084B2B0008B8
:100050004B2B00084B2B00084B2B00084B2B0008A8
:100060004B2B00084B2B0008C92600084B2B00081F
:100070004B2B00084B2B00084B2B00084B2B000888
:100080004B2B00084B2B00084B2B00084B2B000878
:100090004B2B00084B2B00084B2B00084B2B000868
:1000A0004B2B00084B2B00084B2B00084B2B000858
:1000B0004B2B0008651200084B2B00084B2B000847
:1000C0004B2B00084B2B00084B2B00084B2B000838
:1000D0004B2B0008C5560008475F0008F15A00087E
:1000E0004B2B00084B2B00084B2B00084B2B000818
:1000F0004B2B00084B2B00084B2B00084B2B000808
:100100004B2B00084B2B00084B2B00084B2B0008F7
:10011000C95C00084B2B00084B2B00084B2B000838
:100120004B2B00084B2B00084B2B00084B2B0008D7
:100130004B2B00084B2B00084B2B00084B2B0008C7
:100140004B2B00084B2B00084B2B00084B2B0008B7
:100150004B2B00084B2B00084B2B00084B2B0008A7
:100160004B2B00084B2B00084B2B00084B2B000897
:100170004B2B00084B2B00084B2B00084B2B000887
:100180004B2B00084B2B0008DFF80CD006F01CFBB3
:10019000004800479D0100088872002000F03CF9EB
:1001A0000449087005E003480078012801D100F0F7
:1001B000DBF9F8E7985B0020704700BFFEE700BF5F
:1001C000FEE700BFFEE700BFFEE7704770477047DD
:1001D000704700000CB50020019000908348006833
:1001E00040F480308149086000BF8048006800F416
:1001F000003000900198401C0190009818B90198B7
:10020000B0F5A04FF1D17948006800F4003010B18A
:100210000120009001E0002000900098012860D1AA
:1002200072484030006840F08050704940310860AA
:100230006F48006840F440406D4908606B480830E2
:1002400000686A49083108600846006840F40040C8
:1002500008600846006840F4A05008606548091F1F
:100260000860081F006840F08070091F086000BF28
:100270005E48006800F000700028F9D05C48006813
:1002800040F480305A49086000BF5948406800F483
:1002900080300028F9D05648006840F400305449B6
:1002A000086000BF5248406800F400300028F9D0D0
:1002B00040F20570504908604C480830006820F052
:1002C00003004A49083108600846006840F002000F
:1002D000086000BF45480830006800F00C0008289E
:1002E000F8D10CBD10B54548006840F47000434992
:1002F00008603E48006840F001003C49086000206A
:100300003A4908310860394800683D490840374992
:1003100008603C48091D0860081F006820F4802020
:10032000091F0860002031490C310860FFF752FFB7
:100330004FF0006031498039086010BD70B5002071
:100340000022022300240221284D08352D6805F0E3
:100350000C0020B1042806D0082834D107E02A4D2B
:100360002A4E356033E02A4D284E35602FE01F4D70
:100370002D1D2D68C5F380541C4D2D1D2D6805F0D5
:100380003F0154B1224DB5FBF1F5184E361D3668CC
:10039000C6F3881605FB06F209E01B4DB5FBF1F527
:1003A000124E361D3668C6F3881605FB06F20F4D51
:1003B0002D1D2D68C5F301456D1C6B00B2FBF3F5D7
:1003C000124E356003E0104D104E356000BF00BF87
:1003D000064D08352D68C5F303150E4E705D0B4DA7
:1003E0002D68C540094E356070BD000000380240E0
:1003F00000700040085A4007003C024088ED00E0D1
:10040000FFFFF6FE103000240024F400000000205E
:1004100000127A000400002010B54FF4E13005F01E
:10042000FFF84FF4E13005F08AF94FF4E13005F0C0
:1004300039FD4FF4164005F0F1FB4FF4A06002F0D7
:1004400089FB174817490860B42005F059F801F0F6
:1004500075F800F049FF01F0B5FA32220121084693
:1004600001F0B5FB00F030FD01F05FFA01F088FE0D
:1004700000F01AFD2D2140F6B83000F0C8FE012032
:10048000094908600949C1F894020749091D086033
:10049000074908628861C82005F094F8012010BD62
:1004A000001001404C5B0020A0824042008040428E
:1004B000985B002010B52DED048B00F0E2FB00F0FE
:1004C000E6FB3D48B0F900003C49C86009203C49C2
:1004D00008703C4800683C4908603A4880684860B9
:1004E0003A4890ED021BB0EE410AF0EE610A51EC81
:1004F000100B05F0A3FF3449886032480078344976
:1005000008703048007A334908702C480078324926
:1005100008702A49486805F073FF41EC190B9FEDFC
:100520002F0B53EC102B05F0FCFE41EC180B06F0E2
:1005300001F82C49086001F093FE2B4880ED000A79
:1005400005F03AFC1D48C0681F49C860BDEC048B2B
:1005500010BD704770472548006808B9012000E0C9
:10056000002022490860704710B5002400BF20E039
:1005700000F0CAFC04EB44011D4A02EB81018968CA
:10058000884215D304EB4400114601EB80008068DB
:1005900004EB440102EB81014968084404EB440187
:1005A00002EB8101886004EB440152F8210080478E
:1005B000641C052CDCD310BD9E000020105C0020C4
:1005C000485B0020205C0020C4690020005C002003
:1005D000140000201500002016000020000000007C
:1005E000000059401C00002018000020A482404256
:1005F000200000202DE9F84F82464FF0000800252A
:10060000A94600260027BAF1010F06D0BAF1020F61
:1006100070D0BAF1030F6BD180E0F84887680024EE
:100620000EE0601EF64901EB0010E1060A0E611EA5
:10063000C9060090080E0223002101F09EF9641CF7
:100640000C2CEEDB642097FBF0F068B1642097FB84
:10065000F0F5EC4800EB0510022368220021009021
:10066000602001F08AF907E0E648022368220021B1
:100670000090602001F081F905EBC50000EB05104A
:10068000A7EB80070A2097FBF0F068B10A2097FBE0
:10069000F0F9DC4800EB09100223702200210090E1
:1006A000682001F06AF907E0D64802237022002191
:1006B0000090682001F061F9D048806808EB48019B
:1006C000C1EBC811A0EBC10005EBC50101EB0511A1
:1006D000A0EB810009EB8901A0EB4100C94901EBC6
:1006E00000100223782200210090702001F045F9CB
:1006F000E1E0FFE700240EE0601EC34901EB0010BB
:10070000E1060A0E611EC9060090080E02230021B0
:1007100001F033F9641C0D2CEEDBCCE000240EE07C
:10072000601EBA4901EB0010E1060A0E611EC906FF
:100730000090080E0223002101F01FF9641C072C11
:10074000EEDB00240EE0601EB14901EB0010E10673
:100750000A0E611EC9060090080E0423022101F052
:100760000CF9641C082CEEDBAA4800680A2190FBF7
:10077000F1F070B1A748006890FBF1F0A14901EBDE
:10078000001B0223402200213820CDF800B001F0E8
:10079000F4F8A04800680A2190FBF1F000EB80001B
:1007A0009C490968A1EB4000964901EB001B02231C
:1007B000482200214020CDF800B001F0DEF8954835
:1007C000466840684FF47A7190FBF1F070B191483F
:1007D000406890FBF1F88B4800EB08100423482296
:1007E00002210090402001F0C8F807E0854804236A
:1007F000482202210090402001F0BFF808EB480099
:10080000C0EBC810A6EBC006642096FBF0F068B100
:10081000642096FBF0F57B4800EB05100423502282
:1008200002210090482001F0A8F807E07548042351
:10083000502202210090482001F09FF805EBC500EE
:1008400000EB0510A6EB80060A2096FBF0F068B1DD
:100850000A2096FBF0F96B4800EB0910042358229C
:1008600002210090502001F088F807E06548042339
:10087000582202210090502001F07FF8654840681E
:1008800008EB4801C1EBC811A0EBC10005EBC501A5
:1008900001EB0511A0EB810009EB8901A0EB410000
:1008A000584901EB001004236022022100905820D7
:1008B00001F063F800BF00BFBDE8F88F38B505460A
:1008C000012D04D0022D2CD0032D7ED153E0002425
:1008D00024E05148E1060A0E611EC9060090080E88
:1008E0000623042101F049F84B48E1060A0E611E77
:1008F000C9060090080E0423022101F03EF8601E94
:10090000464901EB0010E1060A0E611EC90600907F
:10091000080E0223002101F030F8641C052CD8DBFE
:1009200053E0002424E03C48E1060A0E611EC9069B
:100930000090080E0623042101F01FF8601E3649BE
:1009400001EB0010E1060A0E611EC9060090080EB8
:100950000423022101F011F83048E1060A0E611E5D
:10096000C9060090080E0223002101F006F8641C5D
:10097000052CD8DB29E0002424E0601E264901EB89
:100980000010E1060A0E611EC9060090080E06233B
:10099000042100F0F2FF2048E1060A0E611EC9069C
:1009A0000090080E0423022100F0E7FF1B48E10637
:1009B0000A0E611EC9060090080E0223002100F0F5
:1009C000DCFF641C052CD8DB00BF00BF38BD38B588
:1009D00004240EE0601E114901EB0010E1060A0E2E
:1009E000611EC9060090080E0223002100F0C5FF19
:1009F000641C0F2CEEDB042421E00000205C0020AE
:100A0000C1040020D1000020710500203106002023
:100A100091060020105C002091020020B10100200E
:100A2000601E314901EB0010E1060A0E611EC90685
:100A30000090080E0423022100F09FFF641C122C7A
:100A4000EEDB04240EE0601E284901EB0010E106F5
:100A50000A0E611EC9060090080E0623042100F04C
:100A60008CFF641C132CEEDB38BD10B52048006AE7
:100A7000012817D1FFF7ABFF1D488069012804D07A
:100A8000022806D003280CD107E00120FFF716FF4B
:100A900007E00220FFF712FF03E00320FFF70EFF3D
:100AA00000BF00BF1248006A022815D110488069B3
:100AB000012804D0022806D003280CD107E0012029
:100AC000FFF798FD07E00220FFF794FD03E0032005
:100AD000FFF790FD00BF00BF0548006A032801D161
:100AE00001F05BFA10BD000091020020A10300207C
:100AF000985B002010B52DED0E8BB0EE40AAF0EE05
:100B000060AA9FEDD20BB0EE409AF0EE609A9FED96
:100B1000D10BB0EE408AF0EE608A47E053EC182B20
:100B200051EC180B05F08BFB41EC1E0B53EC1E2B0C
:100B300051EC1A0B05F0F5FB41EC1C0B53EC182B98
:100B40009FEDC60B51EC100B05F079FB41EC1D0B32
:100B500053EC1C2B05F0CCFA41EC1B0B9FEDC10BA9
:100B600053EC102B05F0DDFB41EC190B53EC182B6B
:100B700051EC190B05F05DFB41EC1C0BB0EE4C0A7F
:100B8000F0EE6C0A05F0D6FEB0EE40BAF0EE60BAB8
:100B90009FEDB60B53EC102B51EC1B0B05F09AFCA0
:100BA00000D204E0B0EE498AF0EE698AB6E700BFF1
:100BB000B0EE490AF0EE690ABDEC0E8B10BDAD48EF
:100BC0000088AD490880AB4840884880A9488088A3
:100BD0008880704770B52DED028BA84CFFF7EFFFB2
:100BE000A549098811FB01F1A34A5288A24B5B88F1
:100BF00012FB0312A04989889F4B9B8811FB03209D
:100C000005F0FEFB41EC180BB0EE480AF0EE680A66
:100C1000FFF770FF9A4880ED000B90ED000B51EC50
:100C2000100B05F00BFC054605F0EAFB944A03C2E5
:100C30009448C068944908609448006821468842F6
:100C400003DD91480068884208DB904800688B49C2
:100C500088420FDA8C48006888420BDD89480068BA
:100C6000401C88490860084640688949097808445A
:100C7000844948608448006884490860BDEC028B60
:100C800070BD10B500F0B0FBFFF7EFFE10BD10B562
:100C90002DED028BFFF7F5FF7E48006A022817D181
:100CA0007C488069012806D0022805D003280AD094
:100CB00004280CD10AE00AE001F0D2FAB0EE408A32
:100CC00001F053F803E0FFF785FF00E000BF00BF2D
:100CD000BDEC028B10BD10B52DED108BB0EE408A2F
:100CE000F0EE608A9FED6C0BB0EE409AF0EE609AE9
:100CF000B0EE48BAF0EE68BA53EC192B9FED550BE5
:100D000051EC100B05F095FA41EC1F0B53EC1C2B2A
:100D100005F095FA41EC1D0B53EC1B2B51EC190B14
:100D200005F08DFA41EC1E0B53EC1D2B05F0E0F99C
:100D300041EC1A0BB0EE4ACAF0EE6ACAB0EE4A0AAB
:100D4000F0EE6A0ABDEC108B10BD2DE9F0432DEDDD
:100D5000028B8DB0B0EE408AF0EE608A0027B84674
:100D600051EC180B05F089FB00F0FF09484605F02F
:100D700058FB41EC180B00250BE051EC180B05F06B
:100D80007CFBC0B20DF80500012004F01BFC681CC0
:100D9000C5B2322DF1DB00261AE0002412E01DF866
:100DA0000410601C1DF80000814209DD1DF804805C
:100DB000601C1DF800000DF80400601C0DF8008098
:100DC000601CC4B2C6F13200A042E8DC701CC6B29E
:100DD000312EE2DB012504E01DF805000744681C04
:100DE000C5B2312DF8DB302097FBF0F0C0B20DB06A
:100DF000BDEC028BBDE8F08310B52DED04BB2DEDED
:100E0000048BB0EE408AF0EE608A53EC1A2B51EC62
:100E1000180B05F00EFA41EC1C0B53EC1C2B9FED4C
:100E2000200B51EC100B05F00AFA41EC1B0B53ECB4
:100E3000182B05F05DF941EC190BB0EE490AF0EE04
:100E4000690ABDEC048BBDEC04BB10BD00000000C2
:100E500000000000000000000000F03F0000000063
:100E60000000004000000000000008402D431CEB83
:100E7000E2361A3F8E000020005C0020B0B9FFFF70
:100E800008070020105C0020100700201407002035
:100E90008E5B0020985B00209A9999999999A93FB7
:100EA000000000000000E03F08B50120034B044AA9
:100EB00021210090034805F0E7F808BD18650020DF
:100EC000286C0008385D00200EB50121084602F0AC
:100ED00005FF4FF6FF70019042F22730ADF8000099
:100EE0000020ADF80800ADF8020069464FF08040E0
:100EF00003F037FB00214FF0804003F07BFB012122
:100F0000880703F0B7FB0EBDE1480068704770B575
:100F10002DED068B4FF0804003F070FB044642F24B
:100F20001070844209D90021800603F063FBD94880
:100F300000682044D74908600024D648006820444F
:100F4000D3490860D44804F0BAFC35286BD004DCDF
:100F5000152807D025287DD125E045287BD0652898
:100F6000F9D125E1CC484078CB49097840EA012005
:100F700000B2CA490880C848C078C749897840EAA1
:100F8000012000B2C5494880C3484079C249097967
:100F900040EA012000B2C149888015220321BF48E0
:100FA00004F051FC2FE1BC484078BB49097840EA85
:100FB000012000B2BA490880B748C078B64989789C
:100FC00040EA012000B2B6494880B3484079B249AE
:100FD000097940EA012000B2B1498880B1F90000E6
:100FE00005F00EFA41EC180B9FEDAE0B53EC102BF5
:100FF00005F025F9AD4AC2E90801A949B1F9020095
:1010000005F0FEF941EC180B9FEDA60B53EC102BED
:1010100005F015F9A54AC2E90A0125220321A048D5
:1010200004F011FCEFE09C4840789B49097840EAC5
:10103000012000B29E4908809748C0789649897877
:1010400040EA012000B29A49488093484079924989
:10105000097901E0D6E00AE040EA012000B29449B3
:10106000888035220321924804F0EDFBCBE08A48CA
:1010700040788949097840EA012000B28D4908800A
:101080008548C0788449897840EA012000B28A49BD
:101090000880814840798049097940EA012000B2FE
:1010A000864908808348B0F9000085490880824855
:1010B000B0F9000048808148B0F9000088807E487F
:1010C000B0F9000005F09CF941EC1A0B9FED7D0B87
:1010D00053EC102B05F0B3F841EC190B05F0AEF909
:1010E000054605F08DF941EC180B9FED760B53EC9E
:1010F000102B05F0A4F86D4A03C26E48B0F9000049
:1011000005F07EF941EC1A0B9FED6E0B53EC102BA2
:1011100005F095F841EC190B05F090F9054605F03E
:101120006FF941EC180B9FED670B53EC102B05F09A
:1011300086F85E4AC2E90201104690ED021BB0EE4D
:10114000410AF0EE610A9FED611B53EC112B51EC4B
:10115000100B05F0D7F90FD2544890ED021BB0EEFA
:10116000410AF0EE610A53EC102B9FED5A1B51EC33
:10117000110B05F05EF812E04C4890ED021BB0EE4A
:10118000410AF0EE610A53EC102B9FED521B51EC1B
:10119000110B04F0ADFF41EC180B81F00041434A04
:1011A000C2E9020145220321454804F04CFB2AE034
:1011B000394840783849097840EA012000B2474967
:1011C00008803548C0783449897840EA012000B267
:1011D00042494880304840792F49097940EA012046
:1011E00000B23E4988802C48C0792B49897940EA71
:1011F000012000B23949C88065220421374804F033
:1012000022FB00E000BF00BFBDEC068B70BD7FB5C8
:1012100005460C460121022002F060FD0295ADF862
:1012200004400020ADF80C00ADF8060001A92C48E0
:1012300003F097F901221146294803F033FE1D20DF
:101240008DF8000000208DF8010001208DF80200CB
:101250008DF80300684601F082FC0121204803F06C
:1012600009FA7FBD10B501211D4803F032FE0628A2
:101270000CD001211A4803F03DFE1A48D0ED000AB7
:10128000F8EEE00AB0EE600A00F019FF10BD0000B1
:10129000180700201C070020F05B00206C000020D5
:1012A000720000207B14AE47E17A843FC05B0020CF
:1012B0007800002060000020620000206400002010
:1012C000660000209A9999999999B93F0000000009
:1012D0000000000000000000008066407E0000204A
:1012E00000040040205C00201CB50121022002F017
:1012F000AEFC4FF47040009000208DF804000320F5
:101300008DF8050001208DF807006946834801F03B
:10131000D1FF0120009002208DF807006946804827
:1013200001F0C8FF1CBD10B504467E4800780028B7
:101330003DD04FF40041794802F01EF888B14FF4D7
:101340008051764802F018F858B14FF400517348B4
:1013500002F012F828B14FF48041704802F00CF806
:1013600028BB0A2004F02EF900206E4908704FF4C3
:1013700080516A4802F000F808B9012010BD4FF40E
:101380000051664801F0F8FF08B90220F6E74FF473
:101390008041624801F0F0FF08B90320EEE74FF406
:1013A00000415E4801F0E8FFE0B90420E6E74FF4B1
:1013B00000415A4801F0E0FF012813D101035748CA
:1013C00001F0DAFF01280DD14103544801F0D4FFA8
:1013D000012807D18103514801F0CEFF012801D136
:1013E000504908700020C9E710B52DED048B82B07C
:1013F0000020FFF798FF0446002C78D0012C06D07F
:10140000022C3ED0032C42D0042C39D174E0464843
:10141000006A022834D144488069012806D0022895
:1014200008D003281DD0042829D127E003203E49F5
:10143000086224E03C4890ED090A10EE101A0846B4
:1014400005F034F841EC190B9FED380B53EC102BE1
:1014500004F04EFE41EC180B05F06CF8324948627E
:101460000DE00020334908604860334802234022E1
:1014700000210090382000F080FA00E000BF00BF9B
:1014800046E001202849086200F04FFA40E0264873
:10149000006A012804D102202349086200F045FABD
:1014A0002148006A022826D11F488069012806D0F9
:1014B000022805D003281BD004281BD119E019E00D
:1014C000194890ED090A10EE101A084604F0EEFFD4
:1014D00041EC190B9FED150B53EC102B04F0A9FEFA
:1014E00041EC180B05F026F80F49486202E010E0C5
:1014F00000E000BF00BF0BE00B488069042803DA5E
:1015000009488069401C00E001200749886100BF4C
:1015100000BF02B0BDEC048B10BD0000000402400F
:101520000000024020070020985B00209A999999BA
:101530009999B93F105C00209C6500201CB50121E1
:10154000022002F084FB4FF44870009001208DF8D7
:10155000040000208DF8060003208DF8050001200E
:101560008DF807006946044801F0A4FE4FF4487165
:10157000014801F01DFF1CBD0004024000B58BB006
:101580000121022002F063FB0121480502F0A6FBC5
:101590000121480502F0F7FB00214FF4001002F092
:1015A000F2FB04220621AF4801F00FFF04220721BD
:1015B000AC4801F00AFFC020099002208DF82800F5
:1015C0008DF8290001208DF82A0000208DF82B00CD
:1015D00009A9A44801F06EFEA34801F02FFF0020E6
:1015E000ADF818004BF6FF70ADF81A000F20ADF8FB
:1015F0001C004FF48060ADF81E009C4805904FF42D
:101600008040ADF8200005A9974801F040FF012176
:10161000954801F0B8FF01A802F048FA42F21071B3
:101620000198B0FBF1F0924908800BB000BD2DE9A4
:10163000F04106460F4615468D48048800BF601EDF
:10164000041E06D04FF40031304602F0D9F80028CD
:10165000F5D114B90120874908700121304601F005
:10166000B5FF8348048800BF601E041E05D0824970
:10167000304602F0A3F80028F6D014B901207D49C5
:10168000087000223946304601F0B8FF78480488D7
:1016900000BF601E041E05D07849304602F08EF867
:1016A0000028F6D014B90120724908702946304646
:1016B00002F028F86E48048800BF601E041E06D0A1
:1016C0006E49891C304602F079F80028F5D014B92B
:1016D0000120684908700121304601F077FF644815
:1016E000048800BF601E041E05D06349304602F026
:1016F00065F80028F6D014B901205E49087001226F
:101700003946304601F07AFF5948048800BF601E10
:10171000041E06D05849491C304602F04FF80028F4
:10172000F5D014B90120534908700021304601F06A
:101730006DFF0121304601F055FF4D48048800BF80
:10174000601E041E06D04C493F31304602F036F888
:101750000028F5D014B9012046490870304601F040
:10176000D3FF80460121304601F050FF4046BDE8DE
:10177000F0812DE9F0410746884615461E463C4853
:10178000048800BF4FF40031384602F039F80028D1
:10179000F8D100BF601E041E06D04FF40031384659
:1017A00002F02EF80028F5D114B901203149087053
:1017B0000121384601F00AFF2D48048800BF601E51
:1017C000041E05D02C49384601F0F8FF0028F6D059
:1017D00014B901202749087000224146384601F01B
:1017E0000DFF2348048800BF601E041E05D0234956
:1017F000384601F0E3FF0028F6D014B901201D4956
:1018000008702946384601F07DFF1948048800BF5A
:10181000601E041E06D01949891C384601F0CEFF0F
:101820000028F5D014B90120124908703146384615
:1018300001F068FF0E48048800BF601E041E06D039
:101840000E49891C384601F0B9FF0028F5D014B9BB
:101850000120084908700121384601F0C3FEBDE8A7
:10186000F08100000004024000540040006A1800AB
:101870002207002024070020010003008200070047
:1018800010B50446234640227821FA48FFF771FF3D
:1018900010BD10B50446234600227821F548FFF715
:1018A00068FF10BD10B58D2300227821F148FFF7A5
:1018B00060FF142300227821EE48FFF75AFFAF2380
:1018C00000227821EB48FFF754FF10BD10B58D239F
:1018D00000227821E748FFF74CFF102300227821EF
:1018E000E448FFF746FFAE2300227821E148FFF7E6
:1018F00040FF10BD70B504460D4605F1B000C3B2FF
:1019000000227821DB48FFF734FF102040EA14134F
:1019100000227821D748FFF72CFF04F00F030022A4
:101920007821D448FFF725FF70BD70B5002421E071
:1019300004F1B000C3B200227821CE48FFF719FFAE
:1019400000231A467821CB48FFF713FF102300220B
:101950007821C848FFF70DFF002507E0002340224B
:101960007821C448FFF705FF681CC5B2842DF5DB5C
:10197000601CC4B2082CDBDB70BD2DE9F05F0546AE
:101980000E4617469846DDF828A04FF0000B344667
:1019900014E021462846FFF7ADFFA9460AE0594664
:1019A0000BF1010B1AF80100FFF76AFF09F10100C2
:1019B00000F0FF09B945F2DB601CC4B24445E8DB26
:1019C000BDE8F09F08B5FFF7D9FDAE2300227821CE
:1019D000A848FFF7CEFE202300227821A548FFF774
:1019E000C8FE022300227821A248FFF7C2FEB023DE
:1019F000002278219F48FFF7BCFEC82300227821EF
:101A00009C48FFF7B6FE00231A4678219948FFF755
:101A1000B0FE1023002278219648FFF7AAFE40234B
:101A2000002278219348FFF7A4FE81230022782129
:101A30009048FFF79EFEFF23002278218D48FFF794
:101A400098FEA123002278218A48FFF792FEA62360
:101A5000002278218748FFF78CFEA82300227821F6
:101A60008448FFF786FE3F23002278218148FFF754
:101A700080FEA423002278217E48FFF77AFED3233C
:101A8000002278217B48FFF774FE00231A46782154
:101A90007848FFF76EFED523002278217548FFF7BE
:101AA00068FEF023002278217248FFF762FED923F6
:101AB000002278216F48FFF75CFE22230022782164
:101AC0006C48FFF756FEDA23002278216948FFF7B9
:101AD00050FE1223002278216648FFF74AFEDB23DE
:101AE000002278216348FFF744FE2023002278215A
:101AF0006048FFF73EFE8D23002278215D48FFF706
:101B000038FE1423002278215A48FFF732FEAF2313
:101B1000002278215748FFF72CFE052003F052FDE4
:101B2000FFF703FF4FF47A7003F04CFDFFF7FDFE63
:101B3000514808236022002100902020FFF71DFF5C
:101B40004FF47A7003F03EFDFFF7EFFE4B4806239B
:101B50003822022100902820FFF70FFF474840302D
:101B600006234822022100903820FFF706FF434851
:101B7000803006235822022100904820FFF7FDFE06
:101B80004FF47A7003F01EFDFFF7CFFE08BD2DE97C
:101B9000F04705460E4617469846344613E0214660
:101BA0002846FFF7A7FEA94609E000234022782136
:101BB0003048FFF7DEFD09F1010000F0FF09B945EB
:101BC000F3DB601CC4B24445E9DBBDE8F08770B5C7
:101BD00004460D461646012C42D12E2300227821C0
:101BE0002448FFF7C6FD012D06D1272300227821C6
:101BF0002048FFF7BEFD08E035B9262300227821F2
:101C00001C48FFF7B6FD00E070BD00231A4678219E
:101C10001848FFF7AEFD00231A4678211548FFF754
:101C2000A8FD3346002278211248FFF7A2FD0723C2
:101C3000002278210F48FFF79CFD00231A467821E7
:101C40000C48FFF796FDFF23002278210948FFF793
:101C500090FD2F23002278210648FFF78AFD06E039
:101C60002CB92E23002278210248FFF782FD00BF05
:101C7000CAE7000000540040A5560020E5580020A7
:101C8000F8B504460D461646FE48082330220021CA
:101C900000902020FFF771FEFA48082360220021FF
:101CA00000905020FFF769FE0A2094FBF0F000EB53
:101CB0004000F54901EB4017082310220021084697
:101CC0000097FFF75AFE0A2094FBF0F100FB114049
:101CD00000EB4000EC4901EB4017082320220021D3
:101CE00010200097FFF749FE0A2095FBF0F000EB6B
:101CF0004000E54901EB4017082340220021302035
:101D00000097FFF73AFE0A2095FBF0F100FB115017
:101D100000EB4000DC4901EB401708235022002172
:101D200040200097FFF729FE0A2096FBF0F000EB19
:101D30004000D54901EB40170823702200216020A4
:101D40000097FFF71AFE0A2096FBF0F100FB1160E6
:101D500000EB4000CC4901EB401708238022002112
:101D600070200097FFF709FEF8BD10B52DED068B2A
:101D700082B0B0EE408A9FEDC50AB4EEC08AF1EEA3
:101D800010FA1FD8BF4860300823102202210090AB
:101D90000020FFF7F2FD18EE100A04F087FB41EC7B
:101DA0001A0BB0EE4A0AF0EE6A0A04F0C3FDB0EE78
:101DB000409AF0EE609A51EC190B04F0BBFB08EE70
:101DC000100A07E0B24808231022022100900020E8
:101DD000FFF7D3FDBDEEC80A10EE100A0A2190FBF2
:101DE000F1F000EB4000A84901EB40140823202249
:101DF000022110200094FFF7C0FDBDEEC80A10EECE
:101E0000100A0A2190FBF1F201FB120000EB4000E6
:101E10009D4901EB40140823302202212020009428
:101E2000FFF7ABFD9A48603808234022022100905A
:101E30003020FFF7A2FDBDEEC80AB8EEC00A38EEAA
:101E4000400AF2EE040A20EE200ABDEEC00A10EEAF
:101E5000100A00EB40008C4901EB4010082350228F
:101E6000022100904020FFF788FDBDEEC80AB8EEC1
:101E7000C00A38EE400ADFED870A20EE200ABDEEE8
:101E8000C00A10EE100A0A2190FBF1F201FB1200C9
:101E900000EB40007C4901EB401408236022022142
:101EA00050200094FFF769FD7B480823802202211F
:101EB00000906020FFF761FD02B0BDEC068B10BD05
:101EC00070B5002418E004F1B001C8B2FFF7E1FCDE
:101ED0000020FFF7DEFC1020FFF7DBFC002507E009
:101EE0006E4901EBC501085DFFF7CAFC681CC5B26D
:101EF000802DF5DB601CC4B2082CE4DB70BD70B52E
:101F000000240CE0002506E00020644901EBC50137
:101F10000855681CC5B2802DF6DB601CC4B2082CC5
:101F2000F0DBFFF7CDFF70BDF0B5144600267F282B
:101F300001DC3F2900DDF0BD0B46CF1701EB5777E1
:101F4000FF10C7F10707FAB2CF1701EB5777FF1061
:101F5000A1EBC707FDB2C5F107070123BB40DEB205
:101F60004CB14E4B03EBC0039B5C33434B4F07EB31
:101F7000C007BB5408E0494B03EBC0039B5CB34371
:101F8000464F07EBC007BB5400BFD4E7014600290A
:101F900001DA484270470846FCE7F0B5A1B00027D7
:101FA000802101A804F085F83D48007801287BD104
:101FB00000203B4908707F247BE0002606E0E0B269
:101FC00000223146FFF7B0FF701CC6B2402EF6DB90
:101FD0007F2504E03348405D01A948556D1E002D62
:101FE000F8DC002516E02F4905F14000085C01A946
:101FF000C8552C4A05F14001525C2A4B491C595CDA
:10200000501800EBD071C1F3470201AB791C5A5450
:10201000BF1C6D1C3F2DE6DB0027FCB101A90A5D4A
:10202000611E01AB595C501AFFF7B0FF012825DD96
:1020300001A8015D601E01AA105C81420FDD601ED7
:1020400001A90E5C06E0E0B201223146FFF76CFF09
:10205000701CC6B201A8005DB042F4DC0EE001A81D
:10206000065D06E0E0B201223146FFF75DFF701C1D
:10207000C6B2601E01A9085CB042F3DC01AA115D82
:10208000E0B212E0451B00208517002095BFD63333
:10209000651C00200000C842452A0020AC650020D5
:1020A000D00000202C5C002007E00122FFF73CFF5D
:1020B000641E002C81DAFFF703FF21B0F0BDF0EEC3
:1020C000400A2A490978491C284A117011460978A2
:1020D0000A2949D1002111700121254A1170B0EE61
:1020E000600ABAEE041AB4EEC10AF1EE10FA04D294
:1020F000BAEE041AB0EE410A0AE0B2EE041AB4EEE7
:10210000C10AF1EE10FA03DDB2EE041AB0EE410A94
:10211000B2EE041A30EE011AB0EE410AB0EE081A1F
:1021200020EE011AB0EE410A9FED121A31EE401A6C
:10213000B0EE410A104991F87F10104A82F87F10E2
:102140007E2008E00C49095C0C4A1154411C515C8A
:10215000094A1154401E0028F4DABCEEC01A11EEF0
:10216000101A054A82F87F1070470000255B002096
:10217000D0000020000080422C5C0020AC5C0020DD
:1021800000B58DB00121084601F061FD0121080272
:1021900001F0B5FD01200B9003208DF830000020E8
:1021A0008DF833000BA97D4801F084F80121080265
:1021B00001F0FAFD00214FF4807001F0F5FD0020E0
:1021C00007900A9009904FF40030089007A800F09B
:1021D0006BFD002001908DF808008DF80900039038
:1021E000059001208DF8180001A96D4800F02DFD23
:1021F0000723012200216A4800F0ADFD0121684853
:1022000000F069FD664800F002FE0DB000BD10B59B
:102210000446072301222146614800F09CFD6048E6
:1022200000F0F5FD00BF02215D4800F011FF00281D
:10223000F9D05B4800F027FE10BD70B500240025E2
:1022400000BF07E00020FFF7E2FF0444012003F095
:10225000B9F96D1C282DF5DB282094FBF0F070BD3A
:1022600010B52DED108B88B0FFF7E7FF00EE100AD8
:10227000B8EEC00A10EE104A204604F017F941ECFF
:102280001A0B9FED480B53EC102B03F0D8FF41ECD9
:10229000190B04F04FF908EE100A18EE100A04F0BA
:1022A00005F941EC1A0B9FED410B53EC102B03F099
:1022B000C6FFCDE9040118EE100A04F0F7F841EC6E
:1022C0001C0B18EE100A04F0F1F841EC1E0B9FED08
:1022D000390B53EC102B03F0B2FF41EC1D0B53EC08
:1022E0001C2B03F0ACFF41EC1A0B18EE100A04F0A3
:1022F000DDF841EC1C0B18EE100A04F0D7F841ECA5
:102300001E0B18EE100A04F0D1F89FED2C0B53ECC5
:10231000102BCDE900019DED000B51EC100B03F0EB
:102320008EFF41EC1F0B53EC1E2B03F088FF41EC9A
:102330001D0B53EC1C2B03F082FF41EC1B0B53ECE9
:102340001A2B03F0D5FECDE902019DED040B53ECF1
:10235000102B9DED020B51EC100B03F0C9FE41EC6C
:10236000190B9FED180B53EC102B03F0C1FECDE9B8
:1023700006019DED060B51EC100B04F0DBF808EEA6
:10238000100A124890ED090A30EE080AB0EE408AB1
:10239000B0EE480A08B0BDEC108B10BD0000024042
:1023A000002001400000000000C8E93FF4ED6EAFDE
:1023B00016E9C6BFB0060F277528D8BE82F74CAE07
:1023C000664812BE8095438B6C9B6940985B0020E9
:1023D00010B5044600BF0221404801F09BFF0628CB
:1023E000F9D021463D4801F04CFF00BF01213B4898
:1023F00001F090FF0628F9D0384801F03FFFC0B245
:1024000010BD00B587B00121102001F020FC012192
:10241000480301F074FC6420059002208DF8180038
:1024200000208DF81A0003208DF8190001208DF886
:102430001B0005A92A4800F03DFF0522022128487B
:1024400000F0C3FF05221146254800F0BEFF05221B
:102450000621234800F0B9FF0121480301F0A4FC44
:1024600000214FF4005001F09FFC0020ADF8000067
:102470004FF48270ADF802000020ADF80400012096
:10248000ADF808004002ADF80A002020ADF80C00BD
:102490000020ADF80E000720ADF8100069460F4887
:1024A00001F074FD01210D4801F06AFEFF20FFF7E5
:1024B0008FFF07B000BD10B50446084800884FF6EE
:1024C000C7710840054908800846008820430880F5
:1024D0000121024801F054FE10BD0000003401400B
:1024E0000010024010B504462046FFF771FF10BDF2
:1024F0002DE9F04107460E4615460020FE490860CA
:10250000642003F017F83846FFF7ECFF642003F06F
:1025100011F8711EC8B2FFF7E5FF07F0400068B17F
:10252000002408E0642003F005F82878FFF7DAFFBC
:102530006D1C601CC4B2B442F4DB0DE0002409E061
:10254000642002F0F7FF0020FFF7CCFF28706D1C1D
:10255000601CC4B2B442F3DB642002F0EBFF012044
:10256000E5490860BDE8F08110B504460020E24965
:102570000860642002F0DEFF2046FFF7B3FF64200E
:1025800002F0D8FF0120DD49C1F8AC0210BD3EB514
:102590000020D949083108600120D849C1F8BC029F
:1025A0001120FFF7E1FF642003F00CF80620FFF78D
:1025B000DBFF4FF47A7003F005F81120FFF7D4FF2A
:1025C000642002F0FFFF6A460C212020FFF790FFF5
:1025D000CBA004F09BF9002407E01DF8042021465D
:1025E000CCA004F093F9601CC4B20C2CF5DB3EBD0A
:1025F00000B585B00121102001F029FB4FF42040E7
:10260000039001208DF8100003208DF811000020A8
:102610008DF8130003A9C14800F04CFE1020039070
:1026200000208DF8100003208DF8110000208DF897
:10263000130003A9B94800F03DFE0421022001F077
:10264000AAFE1020009000208DF804000C208DF8C8
:10265000050001208DF80600684600F02BFD4FF4C0
:10266000A06000F077FA0A208DF8080001208DF8AC
:1026700009008DF80A008DF80B0002A800F06FFA2F
:10268000A748006820F01000A549086001209A4979
:102690000860FFF7B6FEFFF77AFF05B000BD70B522
:1026A0000446002094490860002506E00020FFF75A
:1026B00019FF2070641C681CC5B2092DF6DB0120CF
:1026C0008D490860002070BD10B5102000F063FD3A
:1026D00089489C38006828B99248FFF7E0FF01203C
:1026E0009149087010BD732090490870002048700F
:1026F000084640788E49097808438C494870002084
:102700008870084680788B49097840EA81108749AB
:102710008870084680788749497840EA41108349A3
:102720008870084680788349897840EA01107F499B
:102730008870084680787F49C97840EAC1007B49A3
:102740008870084680787B49097940EA41007749DA
:1027500088700846807840F0810088701020C8702A
:1027600000200871084600797349097840EAC110D1
:102770006E490871084600796F49497840EA0110AE
:102780006A490871084600796B49897808436749A6
:10279000087100204871084640796849097840EA84
:1027A000C11062494871084640796449497840EA55
:1027B00001105E49487108464079604989780843AC
:1027C0005A49487100208871084680795C49097827
:1027D00040EA41105549887108468079584949783E
:1027E00040EA011051498871084680795449897836
:1027F00040EAC1004D498871084680795049C9783E
:1028000040EA810049498871084680794C49097934
:1028100040EA41004549887108468079484949792C
:102820000843424988710846807940F0C0008871A9
:102830000020C8710846C0794249097840EA411031
:102840003A49C8710846C0793E49497840EA0110C2
:102850003649C8710846C0793A49897840EAC100CA
:102860003249C8710846C0793649C97840EA8100C2
:102870002E49C8710846C0793249097940EA4100B9
:102880002A49C8710846C0792E4949790843274921
:10289000C8710020087248720846407A2A490978AF
:1028A00040EAC110214948720846407A26494978D1
:1028B00040EA81101D4948720846407A22498978C9
:1028C00040EA8100194948720846407A1E49C97891
:1028D0000843164948720846407A40F002004872A0
:1028E000002088720846807A1849097840EAC110A9
:1028F0000E49887208462BE0AC0242420000424278
:10290000726561642064656661756C742052454728
:102910003A0D0A0025642025780D0A0000100240B7
:10292000003C0140B8690020455B0020AC690020F4
:10293000265B0020275B00202C5B00202F5B002003
:10294000325B0020385B00203E5B0020425B0020B1
:10295000807A6249497840EA810061498872084674
:10296000807A5E49897840EA41005D49887208466C
:10297000807A40F0010088720C20C87270473EB522
:102980000025FFF7B0FE564A521C0B214120FFF7ED
:10299000AFFD0A2002F016FE6A460C212020FFF748
:1029A000A7FD0A2002F00EFE4EA003F0AFFF0024A8
:1029B00008E04B48025D2146AFF2A80003F0A6FFF5
:1029C000601CC4B20C2CF4DB4AA003F09FFF00246F
:1029D00017E04348005D1DF80410884207D02CB171
:1029E000082C03D00B2C01D0012500E007E01DF8D6
:1029F00004202146AFF2E40003F088FF00BF601C12
:102A0000C4B20C2CE5DB1DB93DA003F07FFF02E052
:102A100040A003F07BFF28463EBD10B500240120F6
:102A20004049087105204049887040498870FFF787
:102A3000A6FF00B101240A2002F0C4FD204610BD0B
:102A400010B50024002037490871012036498870EC
:102A500036498870FFF793FF00B101240A2002F085
:102A6000B1FD204610BD10B5002400202D4908718D
:102A70002D4988702D498870FFF781FF00B101242E
:102A80000A2002F09FFD204610BD70B505460A20C1
:102A900002F098FD25B1012D06D0022D0CD107E0E2
:102AA000FFF7E1FF044607E0FFF7B7FF044603E046
:102AB000FFF7C6FF044600BF00BF0CB1012070BD88
:102AC0001020FFF751FD0A2002F07CFD0820FFF7DF
:102AD0004BFD0A2002F076FD0020F0E7425B00206B
:102AE000AC6900205752495445205245473A0D0AD7
:102AF0000000000052454144205245473A0D0A006B
:102B000052454720777269746520737563636573F6
:102B1000730D0A005245472077726974652065720B
:102B2000720D0A00275B00202C5B00202F5B002029
:102B30000648804706480047FEE7FEE7FEE7FEE757
:102B4000FEE7FEE7FEE7FEE7FEE7FEE7E502000838
:102B50008901000832490143324A1160704770B55B
:102B6000002100230F22C4781CB32E4C246804F4E7
:102B7000E064C4F5E064C4F30721C1F10404E3B2E6
:102B80000A4144789C40E1B28478144021430C0708
:102B9000210E254C05786155047804F01F050124A9
:102BA000AC4005786D11AD0005F1E025C5F8004198
:102BB00009E0047804F01F050124AC401B4D0678A1
:102BC000761145F8264070BD194A0A400243154B5C
:102BD0001B1F1A60704739B1124A121D1268024356
:102BE000104B1B1D1A6006E00E4A121D126882432C
:102BF0000C4B1B1D1A607047042808D14FF0E021D0
:102C0000096941F004014FF0E022116107E04FF043
:102C1000E021096921F004014FF0E02211617047C1
:102C20000000FA050CED00E000E400E080E100E0C7
:102C300080FFFF1F10B50121080201F0B5F8002147
:102C40004FF4807001F0B0F810BD30B5024600209E
:102C500000235068F84C20400D790C6844EA0524A4
:102C6000204350609068F54C2040D1E903542C4338
:102C70008D682C434D7944EA450420439060D06A26
:102C800020F470000C7D641EE4B2234340EA03503C
:102C9000D06230BD00210160017141718160C1606D
:102CA00001610121017570470021E54A1168E54A7B
:102CB0001140D0E900231A4383681A43C3681A43BA
:102CC0001143E14AC2F804137047002101604160DA
:102CD0008160C160704721B1826842F00102826068
:102CE00003E0826822F00102826070470A460021F8
:102CF0004168D64B1940114341607047416282627E
:102D000070470A460021416821F01F0111434160CC
:102D1000704738B1CA49096841F40001CA4AC2F88B
:102D2000041306E0C649096821F40001C64AC2F846
:102D30000413704738B1C249096841F48001C24A9E
:102D4000C2F8041306E0BE49096821F48001BE4AB6
:102D5000C2F804137047F0B504460D460020002168
:102D6000092D11DDE068A5F10A0606EB46070726E6
:102D700006FA07F18843A5F10A0606EB460603FAB0
:102D800006F10843E0600CE0206905EB45070726E3
:102D900006FA07F1884305EB450603FA06F10843F6
:102DA0002061072A0FDA606B561E06EB86071F2686
:102DB00006FA07F18843561E06EB860605FA06F169
:102DC0000843606322E00D2A0FDA206BD61F06EB62
:102DD00086071F2606FA07F18843D61F06EB8606EC
:102DE00005FA06F10843206310E0E06AA2F10D063F
:102DF00006EB86071F2606FA07F18843A2F10D06A7
:102E000006EB860605FA06F10843E062F0BD81682C
:102E100041F0804181607047014600208A6802F0DD
:102E200080420AB1012000E00020704721B1826891
:102E300042F48062826003E0826822F480628260F1
:102E4000704721B1826842F00202826003E082682A
:102E500022F002028260704710B50A46002100236A
:102E6000416821F46041531E41EA4331416010BD85
:102E700021B1426842F40062426003E0426822F4F9
:102E80000062426070470146C86C80B270476C486F
:102E9000001D0068704721B1826842F48072826030
:102EA00003E0826822F480728260704721B18268F8
:102EB00042F40072826003E0826822F40072826051
:102EC000704738B15E49096841F400515E4AC2F862
:102ED000041306E05A49096821F400515A4AC2F81D
:102EE00004137047F0B50446154600200022002662
:102EF000092911DDE068A1F10A0707EB470C072754
:102F000007FA0CF29043A1F10A0707EB470703FA0F
:102F100007F21043E0600CE0206901EB410C072749
:102F200007FA0CF2904301EB410703FA07F2104352
:102F30002061A06BC0F30156EF1C06F1010CA7EB5A
:102F40000C0707EB870C1F2707FA0CF29043EF1CC6
:102F500006F1010CA7EB0C0707EB870701FA07F254
:102F60001043A063F0BD10B50A4600210023816B19
:102F700021F44011531E41EA0351816310BD08B58D
:102F8000002300930090009B0B440093009B1A6069
:102F900008BD0A460021816821F470211143816037
:102FA00070470A460021816821F440111143816075
:102FB0007047816841F480018160704701460020BC
:102FC0008A6802F480020AB1012000E00020704704
:102FD00021B1426842F48062426003E0426822F418
:102FE00080624260704721B1426842F48052426080
:102FF00003E0426822F480524260704708B50246FE
:1030000000200090009201F12800009B18440090DD
:103010000098006880B208BD10B50B460021D9B2F7
:10302000012404FA01F11AB144680C43446002E03F
:1030300044688C43446010BDFFFEFFFCFDF7FFC0F9
:1030400004230140E030FCFF00200140FFFD3FFF72
:103050000246002013680B400BB1012000E0002065
:103060007047CA430260704770B5024600200023D3
:1030700000240B12556801268E4005EA06041568E7
:103080001D4015B10CB1012000E0002070BD0022F0
:103090000A12D34303607047002041490860091DAC
:1030A0000860091D0860091D08603E483C4914314C
:1030B0000860704700213A498279002A3AD00A46CE
:1030C000126803689A430B461A600A1D1268036867
:1030D0009A430B1D1A60027911440A6803681A4367
:1030E0000A602F4A0832126803689A432C4B08334F
:1030F0001A601A1D126803689A43294B0C331A6030
:103100004279102A0ED11A1F126803681A43244B01
:1031100008331A601A1D126803681A43204B0C33D7
:103120001A600DE01E49427911440A6803681A4387
:103130000A6005E0027911440A6803689A430A604C
:1031400070470021016001710C21417100218171E2
:1031500070471349103109680143114A1032116058
:103160007047014600200E4A143212680A400AB124
:10317000012000E0002070470949143108607047C1
:1031800001460020064A143212680A400AB10120A2
:1031900000E00020704702491431086070470000C9
:1031A000003C0140FFFF7F0010B504469848844270
:1031B00008D10121084600F0B3FD0021012000F0F4
:1031C000AFFD76E09348844208D10121022000F04F
:1031D000A7FD0021022000F0A3FD6AE08E48844292
:1031E00008D10121042000F09BFD0021042000F003
:1031F00097FD5EE08948844208D10121082000F053
:103200008FFD0021082000F08BFD52E084488442AD
:1032100008D10121102000F083FD0021102000F0D2
:103220007FFD46E07F48844208D10121202000F044
:1032300077FD0021202000F073FD3AE07A488442B7
:1032400008D10121402000F06BFD0021402000F05A
:1032500067FD2EE07548844208D10121802000F0EE
:103260005FFD0021802000F05BFD22E07048844279
:1032700008D10121801500F053FD0021A01500F0B8
:103280004FFD16E06B48844208D10121401500F043
:1032900047FD0021601500F043FD0AE066488442C6
:1032A00007D10121001500F03BFD0021201500F0A1
:1032B00037FD10BDF0B50A4600210023002400BFF1
:1032C0003DE0012505FA01F3156805EA03049C4277
:1032D00034D105684F000326BE40B543056015791B
:1032E0004E00B5400668354305601579012D02D0C2
:1032F0001579022D16D185684F000326BE40B543CF
:10330000856055794E00B5408668354385604568CF
:1033100001268E40B5434560456896798E40B6B229
:1033200035434560C5684F000326BE40B543C560C0
:10333000D5794E00B540C6683543C560491C102993
:10334000BFD3F0BD4FF6FF710160002101714171E3
:103350008171C171704708B54FF480320092009AB4
:103360000A430092009AC261C161009AC261C269B7
:103370000092C269009208BD0246002013690B400A
:103380000BB1012000E0002070470146086980B2BF
:1033900070470246002053690B400BB1012000E04A
:1033A000002070470146486980B27047018370472A
:1033B000418370470AB1018300E041837047416156
:1033C000704742694A4042617047F0B500230024CB
:1033D0004D07ED0E02FA05F3CE1000F1200555F869
:1033E00026504E07F70E0F26BE40B543CF1000F112
:1033F000200646F82750CE1000F1200555F826503B
:1034000045EA0304CE1000F1200545F82640F0BD42
:10341000000002400004024000080240000C02408C
:10342000001002400014024000180240001C02403C
:1034300000200240002402400028024010B504464B
:10344000F848844209D10121480500F09CFC002184
:103450004FF4001000F097FC18E0F348844209D1C3
:103460000121880500F08FFC00214FF4800000F05E
:103470008AFC0BE0ED48844208D10121C80500F028
:1034800082FC00214FF4000000F07DFC10BD2DE90E
:10349000FF4704460D460026B1460427DFF8908317
:1034A000A6884FF6C0700640684600F0FFFADDF8C7
:1034B0000880E048B8FBF0F01FFA80F946EA0906F8
:1034C000A68020884FF6FE71084020800026DA4949
:1034D000286888420CD828684000B8FBF0F087B212
:1034E000042F00DA04273E4309F10100208427E07D
:1034F000E8884BF6FF71884206D1286800EB40004F
:10350000B8FBF0F087B209E0286800EBC00101EBDE
:103510000010B8FBF0F087B247F48047C7F30B0008
:1035200008B947F0010747F4004006434FF496708E
:1035300009FB00F04FF47A7190FBF1F0401C2084FD
:10354000A683208840F00100208026884FF6F530C1
:103550000640A8886989084306432680A8892989E6
:1035600008432081BDE8FF8741F2883101600021D6
:1035700081804BF6FF71C1800021018141814FF4B0
:1035800080418181704721B1028842F001020280AE
:1035900004E002884FF6FE731A400280704729B19A
:1035A000828C4FF6EF731A40828403E0828C42F0E3
:1035B0001002828470470A460021818C4FF6F07316
:1035C000194002F00F0319438184704721B102882A
:1035D00042F48072028004E002884FF6FF631A40D2
:1035E0000280704721B1028842F40072028004E038
:1035F00002884FF6FF531A400280704712B141F023
:10360000010101E001F0FE010182704721B1028851
:1036100042F48062028004E002884FF6FF331A40D1
:10362000028070470A46002181894FF601731940D4
:1036300002F0FE0319438181704721B1828942F073
:103640000102828104E082894FF6FE731A40828172
:10365000704721B1028842F04002028004E00288F3
:103660004FF6BF731A400280704721B1028842F4BE
:103670000042028003E00288C2F30E02028070471B
:1036800021B9028842F08002028004E002884FF6ED
:103690007F731A4002807047B1F5804F05D0828B4E
:1036A0004BF6FF731A40828303E0828B42F4804220
:1036B00082837047B1F5006F04D1028842F4006242
:1036C000028004E002884FF2FF731A4002807047C4
:1036D000B1F5005F04D1028842F40052028004E098
:1036E00002884DF6FF731A400280704721B10288AC
:1036F00042F01002028004E002884FF6EF731A4095
:1037000002807047018270470146088AC0B2704744
:1037100021B1028842F48052028004E002884EF611
:10372000FF731A4002807047B1F5006F04D1028820
:1037300042F40062028004E002884FF2FF731A40F4
:103740000280704721B1028842F02002028004E02A
:1037500002884FF6DF731A40028070470146088BDB
:103760000012704721B1828842F40062828004E036
:1037700082884FF2FF731A408280704721B182889D
:1037800042F48052828004E082884EF6FF731A4031
:103790008280704708B50246002000900092009891
:1037A000084400900098008808BD1AB183880B4334
:1037B000838002E083888B438380704770B5024624
:1037C0000024002500230020958A138B1B0445EA62
:1037D000030626F07F4404EA01068E4201D101204F
:1037E00000E0002070BD10B501460020002300223B
:1037F0008B8A0A8B120443EA020424F07F4010BD36
:103800000CB50246002000230193009300920B0F99
:10381000019321F07F41019B83B1009B14330093FE
:1038200010E000000054004000580040005C0040E0
:1038300000127A0040420F00A0860100090C009B94
:1038400018330093009B1B680B400BB1012000E074
:1038500000200CBD002221F07F42D34383827047B9
:1038600030B5024600200023948801F0E06504EAA8
:10387000154321F07F41948A0C4014B10BB1012013
:1038800000E0002030BD002221F07F42D34383823C
:1038900070470000F648006840F00100F4490860F5
:1038A0000020F34908310860F1480068F1490840F8
:1038B000EF490860F048091D0860F048EC49843180
:1038C0000860ED481038091D0860E948006820F4D8
:1038D0008020E74908600020E5490C310860E44990
:1038E0008C31086070470021E14A921C117011462A
:1038F0000870704710B501460022002300204A11CD
:10390000012A02D1DA4C236808E0022A03D1D84CFC
:103910007034236802E0D64C7434236801F01F022F
:10392000012494401C400CB1012000E0002010BD97
:1039300038B5002000900024002500BF3120FFF79B
:10394000D9FF05460098401C00900098B0F5A04FA4
:1039500001D0002DF2D03120FFF7CCFF08B10124B7
:1039600000E00024204638BD01460020C04A10680F
:1039700020F0F80040EAC10010607047C0490860BC
:1039800070470021BA4A703211701170012802D0BC
:1039900004280AD104E00121B54A7032117005E013
:1039A0000521B34A7032117000E000BF00BF7047BC
:1039B000B4490860704770B5049C41EA821501263D
:1039C000C6EB530645EA0645054345EA0465A84E9D
:1039D000361D356070BDAA490866704710B5830171
:1039E00043EA016343EA0273A14C8434236010BDAF
:1039F000A3498866704710B5830143EA016343EA2F
:103A000002739B4C8834236010BD9D490867704742
:103A10009B49C864704702460020954B08331868DC
:103A200020F0EC6042EA01031843914B0833186020
:103A30007047024600208E4B0833186820F078400B
:103A400042EA010318438A4B083318607047014665
:103A50000020874A0832106820F0030008431060F5
:103A6000704783480830006800F00C00704701463A
:103A700000207F4A0832106820F0F00008431060F0
:103A80007047014600207A4A0832106820F4E0505E
:103A900008431060704701460020754A08321068DC
:103AA00020F4604040EAC10010607047F0B500218A
:103AB000002200240225002602236D4F08373F68AC
:103AC00007F00C0121B1042905D0082937D105E000
:103AD0006D4F076036E06D4F076033E0644F3F1D68
:103AE0003F68C7F38056624F3F1D3F6807F03F03B2
:103AF0006EB1664FB7FBF3F7DFF874C10CF1040C3D
:103B0000DCF800C0CCF3881C07FB0CF40CE05E4F23
:103B1000B7FBF3F7DFF858C10CF1040CDCF800C078
:103B2000CCF3881C07FB0CF4514F3F1D3F68C7F3D3
:103B300001477F1C7D00B4FBF5F7076002E0524FA0
:103B4000076000BF00BF4A4F08373F6807F0F00129
:103B500009094F4F7A5C0768D7404760444F0837E0
:103B60003F6807F4E051890A494F7A5C4768D740BB
:103B700087603F4F08373F6807F46041490B444F67
:103B80007A5C4768D740C760F0BD002100F44072FE
:103B9000B2F5407F0AD1364A0832116821F4F81193
:103BA0003C4A02401143324A08321160304A7032B6
:103BB0001268C0F30B031A432D4B70331A60704721
:103BC00030494439086070472E49403908607047D1
:103BD00031490860704701460020254A8C32106840
:103BE00020F01F004A1E1043214A8C32106070479B
:103BF000014600201E4A8C32106820F4F8504A1EFC
:103C000040EA02201A4A8C321060704701460020B8
:103C1000174A8C32106820F4401008431060704737
:103C200001460020124A8C32106820F440000843FC
:103C300010607047014600200D4A8C32106820F455
:103C4000403008431060704714490860704739B12C
:103C5000074A303212680243054B30331A6006E0DF
:103C6000034A303212688243014B30331A60704786
:103C700000380240FFFFF6EA103000240030002038
:103C800000004742800E47420024F40000127A00F0
:103C9000545B0020FFFCFF0F5C014742E0114742EC
:103CA00029B1934A12680243914B1A6004E0904A8A
:103CB000126882438E4B1A60704739B18C4A121DCC
:103CC000126802438A4B1B1D1A6006E0884A121DC7
:103CD00012688243864B1B1D1A60704739B1844AB3
:103CE0000C3212680243824B0C331A6006E0804AA1
:103CF0000C32126882437E4B0C331A60704739B124
:103D00007B4A103212680243794B10331A6006E086
:103D1000774A103212688243754B10331A6070472D
:103D200039B1734A243A12680243714B243B1A603A
:103D300006E06F4A243A126882436D4B243B1A60B6
:103D4000704739B16A4A203A12680243684B203BF7
:103D50001A6006E0664A203A12688243644B203BB0
:103D60001A60704739B1624A1C3A12680243604BCC
:103D70001C3B1A6006E05E4A1C3A126882435C4BA8
:103D80001C3B1A60704739B1594A143A1268024311
:103D9000574B143B1A6006E0554A143A12688243A6
:103DA000534B143B1A60704739B1514A103A1268AC
:103DB00002434F4B103B1A6006E04D4A103A12681E
:103DC00082434B4B103B1A60704739B1484A1C3252
:103DD00012680243464B1C331A6006E0444A1C3208
:103DE00012688243424B1C331A60704739B1404A13
:103DF0002032126802433E4B20331A6006E03C4AF0
:103E00002032126882433A4B20331A60704739B12E
:103E1000374A243212680243354B24331A6006E0D5
:103E2000334A243212688243314B24331A6070477C
:103E300039B12F4A2C32126802432D4B2C331A60B1
:103E400006E02B4A2C3212688243294B2C331A602D
:103E5000704739B1264A303212680243244B30335E
:103E60001A6006E0224A303212688243204B303317
:103E70001A607047012808D11D493C31096841F09A
:103E800008011B4A3C32116007E019493C310968BE
:103E900021F00801164A3C321160704739B1144ACA
:103EA000273A12780243124B273B1A7006E0104A59
:103EB000273A127882430E4B273B1A7070470C4802
:103EC0004030006840F08070094940310860704718
:103ED00001460020064A283A12680A400AB1012029
:103EE00000E0002070470249263908707047000042
:103EF0003438024010B50446FB48844208D1012101
:103F00008014FFF751FF0021A014FFF74DFF3CE0A4
:103F1000F648844208D101210014FFF734FF002144
:103F20002014FFF730FF30E0F148844208D101212E
:103F3000C013FFF728FF0021E013FFF724FF24E060
:103F4000EC48844208D101214014FFF72DFF0021E5
:103F50006014FFF729FF18E0E748844209D10121E6
:103F60000805FFF721FF00214FF48010FFF71CFF29
:103F70000BE0E248844208D101214805FFF714FF15
:103F800000214FF40010FFF70FFF10BD10B5002205
:103F9000028802F441520B884C8823438C882343C7
:103FA000CC8823430C8923434C8923438C892343A6
:103FB000CC8923431A430280838B4FF2FF74234042
:103FC00083830B8A038210BD2DE9F04F0025022365
:103FD00000244FF001090022002600279446904655
:103FE000B0F81CA04FF2400B0AEA0B0AA0F81CA084
:103FF0004FF0020AA0F820A0858BD1F808A0BAF1F2
:10400000020F01D100BF82E0B1F804A0BAF1000FA5
:1040100002D14FF0010901E04FF00209DFF8E0A200
:10402000DAF800A00AF4000ABAF1000F09D0DFF8AC
:10403000D0A2DAF800A02AF4000ADFF8C4B2CBF864
:1040400000A0DFF8BCA20AF17C0ADAF800A0CAF3EB
:10405000881CDFF8ACA20AF17C0ADAF800A0CAF3E7
:104060000278DFF89CA2AAF1040ADAF800A00AF0AC
:104070003F07DFF88CA2AAF1040ADAF800A00AF4DC
:10408000800ABAF5800F08D1DFF878A2BAFBF7FAF8
:104090000AFB0CFABAFBF8F607E0DFF86CA2BAFBF1
:1040A000F7FA0AFB0CFABAFBF8F6B1F806A0BAF573
:1040B000007F0ED14FEA162A0AEB8A0A4FEA4A0A13
:1040C000D1F808B0BAFBFBFA0AF1050A1FFA8AF226
:1040D0000FE04FEA491AB6FBFAFA0AEB8A0A4FEAEE
:1040E0004A0AD1F808B0BAFBFBFA0AF1050A1FFA2E
:1040F0008AF24FF00A0AB2FBFAF202F00104A2EBD4
:10410000040ACAF34F034FF6FF7A0AEA0424022B8B
:1041100001DBFF2B01DD02230024B1F806A04AEAEF
:10412000040A4AEA030AA0F820A0B1F804A0B1F8F2
:104130000CB04AEA0B0AB1F802B04AEA0B0AB1F82D
:1041400000B04AEA0B0A4AF4006A4AEA0505858388
:10415000BDE8F08F0021018041808180C180018114
:1041600041818181C1810721018270470021018045
:1041700041808180C180022181600021818170475E
:1041800021B1028842F04002028004E002884FF62A
:10419000BF731A400280704721B1828B42F4806263
:1041A000828304E0828B4FF6FF331A40828370478C
:1041B00002884FF2FF731A40028002880A4302808D
:1041C0007047B1F5804F04D1028842F480420280EA
:1041D00004E002884BF6FF731A40028070474FF6E6
:1041E000FF62914204D0028842F48072028004E0AF
:1041F00002884FF6FF631A400280704721B182881F
:1042000042F00402828004E082884FF6FB731A4079
:104210008280704721B1828842F01002828004E0DF
:1042200082884FF6EF731A408280704730B50022C3
:104230000023848B4FF240052C40848302240484A5
:10424000828B0C88B4F5007F01D00C8814B94FF430
:10425000807308E00C88B4F5407F03D00C88B4F577
:10426000807F00D100238C888D892C434D882C437E
:104270001C4344F400642243828330BD0146888994
:1042800070478181704721B1028842F40052028058
:1042900004E002884DF6FF731A40028070470188DF
:1042A00041F480510180704702460020012901D06D
:1042B000108B00E0908A70470146088A70471AB157
:1042C00083880B43838002E083888B43838070471D
:1042D00030B5002400230C110125A540ABB2AAB1D2
:1042E00085881D43858014E000300140003800407F
:1042F000003C0040003401400050014000540140A7
:104300000838024000127A000024F40085889D439A
:10431000858030BD0246002013890B400BB101207F
:1043200000E000207047CA4302817047F0B50246A2
:10433000002000240023002501F00F070126BE40C5
:10434000B4B20B1101269E40B3B2968806EA03056B
:104350001689264016B10DB1012000E00020F0BD05
:1043600010B5002201F00F040123A3409AB2D343F9
:10437000038110BD10B501218803FFF715FD002151
:104380004FF48040FFF710FD10BD1C4908607047D6
:104390001B490862704730B500228B071C0F0F23A2
:1043A00003FA04F2154B08338C1053F8243093436E
:1043B000124C08348D1044F8253023468C1053F8E5
:1043C00024308C07240F00FA04F423430B4C0834E8
:1043D0008D1044F8253030BD0949DC310860704744
:1043E000084908607047002004492031096801F439
:1043F000807109B1012000E00020704700380140C1
:10440000000027420004274210B50446FE488442BB
:1044100008D101210846FFF7C7FC00210120FFF762
:10442000C3FC9DE0B4F1804F08D101210846FFF79D
:10443000AAFC00210120FFF7A6FC91E0F34884428A
:1044400008D101210220FFF79EFC00210220FFF786
:104450009AFC85E0EE48844208D101210420FFF750
:1044600092FC00210420FFF78EFC79E0E9488442A9
:1044700008D101210820FFF786FC00210820FFF762
:1044800082FC6DE0E448844208D101211020FFF74E
:104490007AFC00211020FFF776FC61E0DF488442BF
:1044A00008D101212020FFF76EFC00212020FFF71A
:1044B0006AFC55E0DA48844208D101210220FFF766
:1044C00073FC00210220FFF76FFC49E0D5488442CD
:1044D00009D101210804FFF767FC00214FF4803067
:1044E000FFF762FC3CE0D048844209D10121480436
:1044F000FFF75AFC00214FF40030FFF755FC2FE086
:10450000CA48844209D101218804FFF74DFC0021EB
:104510004FF48020FFF748FC22E0C548844208D1D0
:1045200001214020FFF72FFC00214020FFF72BFC4A
:1045300016E0C048844208D101218020FFF723FC07
:1045400000218020FFF71FFC0AE0BB48844207D10E
:1045500001218015FFF717FC0021A015FFF713FCC0
:1045600010BD00220288A84B98420ED0AC4B984256
:104570000BD0B0F1804F08D0A44B984205D0A44B8B
:10458000984202D0A34B984204D14FF68F731A4041
:104590004B881A43A04B984207D0A04B984204D0B6
:1045A0004FF6FF431A400B891A4302804B68C362DF
:1045B0000B880385944B984202D0994B984201D1C5
:1045C0008B7A03860123838270474FF0FF3141606D
:1045D00000210180018141808172704701858282C2
:1045E00070470A46002101884FF68F731940114326
:1045F0000180704741627047C16270470146486A56
:1046000070470146088D704721B1028842F00202CE
:10461000028004E002884FF6FD731A400280704762
:1046200021B1028842F00402028004E002884FF6C1
:10463000FB731A400280704721B1028842F0800269
:10464000028004E002884FF67F731A4002807047B0
:1046500002884FF6F7731A40028002880A430280EC
:10466000704702884FF6FF431A40028002880A43CF
:104670000280704721B1028842F00102028004E00A
:1046800002884FF6FE731A400280704770B500240E
:1046900000220023058C4FF6FE7635400584028CFF
:1046A0008388048B4FF68F752C40B51E2C400D88E7
:1046B0002C43751E2A408D892A434D882A43524D2A
:1046C000A84202D0564DA84213D14FF6F7752A40A2
:1046D000CD892A434FF6FB752A408D882A434FF631
:1046E000FF652B404FF6FF552B400D8A2B434D8A1B
:1046F0002B43838004838D684563028470BD70B54D
:10470000002400220023058C4FF6EF763540058407
:10471000028C8388048B48F6FF752C404FF6FF45CA
:104720002C400D884FF6FF7606EA05252C434FF600
:10473000DF752A408D8906EA05152A434D8806EA69
:1047400005152A43304DA84202D0354DA8421DD14F
:104750004FF67F752A40CD894FF6FF7606EA05159C
:104760002A434FF6BF752A408D8806EA05152A436D
:104770004FF6FF352B404FF2FF752B400D8A06EAAE
:1047800085052B434D8A06EA85052B4383800483E8
:104790008D688563028470BD70B5002400220023FB
:1047A000058C4FF6FF6635400584028C8388848B28
:1047B0004FF68F752C404FF6FC752C400D882C431E
:1047C0004FF6FF552A408D894FF6FF7606EA0525FC
:1047D0002A434D8806EA05252A430B4DA84202D0FC
:1047E0000F4DA84238D14FF2FF752A40CD894FF6C0
:1047F000FF7606EA05252A434FF6FF352A408D88C5
:1048000006EA05252A4319E00000014000040040A3
:1048100000080040000C0040001000400014004060
:1048200000040140004001400044014000480140B4
:1048300000180040001C0040002000404EF6FF75AC
:104840002B404DF6FF752B400D8A06EA05152B43CC
:104850004D8A06EA05152B43838084838D68C563E2
:10486000028470BD70B5002200230024058C4EF632
:10487000FF7635400584038C8488828B48F6FF756B
:104880002A404FF6FF452A400D884FF6FF7606EA8C
:1048900005252A434DF6FF752B408D8906EA05351F
:1048A0002B434D8806EA05352B43FE4DA84202D026
:1048B000FD4DA84208D14BF6FF752C400D8A4FF6EE
:1048C000FF7606EA85152C43848082838D68056413
:1048D000038470BD002101804180818081608181DD
:1048E000C18101824182704770B5034600200024D7
:1048F0001846183001258D40ACB21D8CA5431D848F
:1049000009B108290AD100EB610005684FF68F76DE
:10491000354005600568154305600FE00D1FC5F3C0
:104920004E052844056848F6FF7635400560056861
:104930004FF6FF7606EA02263543056070BD4163F7
:10494000704781637047C1637047016470470A46CE
:104950000021018B4FF68F7319401143018370477B
:104960000A460021018B48F6FF7319404FF6FF738A
:1049700003EA02231943018370470A460021818B11
:104980004FF68F7319401143818370470A46002107
:10499000818B48F6FF7319404FF6FF7303EA022339
:1049A0001943818370470A460021018B4FF6F77344
:1049B00019401143018370470A460021018B4FF2D1
:1049C000FF7319404FF6FF7303EA02231943018373
:1049D00070470A460021818B4FF6F7731940114347
:1049E000818370470A460021818B4FF2FF73194083
:1049F0004FF6FF7303EA02231943818370470A4687
:104A00000021018B4FF6FB7319401143018370475E
:104A10000A460021018B4FF6FF3319404FF6FF7312
:104A200003EA02231943018370470A460021818B60
:104A30004FF6FB7319401143818370470A460021EA
:104A4000818B4FF6FF3319404FF6FF7303EA0223C1
:104A50001943818370470A460021018B4FF67F730B
:104A600019401143018370470A460021018BC1F3AD
:104A70000E014FF6FF7303EA0223194301837047C7
:104A80000A460021818B4FF67F73194011438183C1
:104A900070470A460021818BC1F30E014FF6FF7368
:104AA00003EA02231943818370470A460021018CDF
:104AB0004FF6FD7319401143018470470A460021E7
:104AC000018C4FF6F77319401143018470470A4671
:104AD0000021018C4FF6DF7319404FF6FF7303EA94
:104AE00002131943018470470A460021018C4FF6D6
:104AF0007F7319404FF6FF7303EA021319430184D1
:104B000070470A460021018C4FF6FF5319404FF6BB
:104B1000FF7303EA02231943018470470A46002108
:104B2000018C4FF2FF7319404FF6FF7303EA022323
:104B30001943018470470A460021018C4DF6FF732A
:104B400019404FF6FF7303EA02331943018470479B
:104B500030B5002301248C40A3B2048C9C43048410
:104B6000048C02FA01F5ADB22C43048430BD30B59B
:104B7000002304248C40A3B2048C9C430484048C42
:104B800002FA01F5ADB22C43048430BD828B4FF2A2
:104B9000FF331A408283828B4FF6FF7303EA0123AF
:104BA0001A4382837047F0B50C4615460021002257
:104BB0000026078C4EF6FF7C07EA0C070784818BE2
:104BC000028C4FF6FF7707EA043640F6FF4739407C
:104BD0004FF6FF7707EA052739434FF6FF7707EAD5
:104BE0000337394345F6FF773A4046F480573A4356
:104BF00081830284F0BD828B4FF6F3731A40828367
:104C0000828B0A4382837047F0B50C46154600211B
:104C100000220026078C4FF6FF6C07EA0C0707847A
:104C2000818B028C4FF6FF7707EA04264FF60C774C
:104C300039404FF6FF7707EA03172F4339434FF206
:104C4000FF573A4046F480773A4381830284F0BDAF
:104C5000028B4FF2FF331A400283028B4FF6FF7331
:104C600003EA01231A4302837047F0B50C46154648
:104C7000002100220026078C4FF6EF7C07EA0C0784
:104C80000784018B028C4FF6FF7707EA041640F683
:104C9000FF4739404FF6FF7707EA033739434FF6AE
:104CA000FF7703E0000001400004014007EA052708
:104CB00039434FF65F773A4046F010073A43018395
:104CC0000284F0BD028B4FF6F3731A400283028B0D
:104CD0000A4302837047F0B50C46154600210022B6
:104CE000068C4FF6FE773E400684018B028C4FF611
:104CF0000C7631407E1C06EA03162E4331434FF6F4
:104D0000F576324044F00106324301830284F0BD5F
:104D100070B505460C46208850B92389A288618861
:104D20002846FFF7D8FFE1882846FFF7CBFF25E0AC
:104D3000208804280AD12389A28861882846FFF7A1
:104D400094FFE1882846FFF783FF17E020880828B2
:104D50000AD12389A28861882846FFF755FFE18898
:104D60002846FFF748FF09E02389A2886188284682
:104D7000FFF719FFE1882846FFF708FF70BD002103
:104D800001804180012181800021C1800181704723
:104D90002DE9F04105460C4600260127608808B938
:104DA000022600E00026A088012801D1022700E0A9
:104DB00001272088A0B92389A28861882846FFF7A7
:104DC0008AFFE1882846FFF77DFF23893A4631466E
:104DD0002846FFF74AFFE1882846FFF739FF13E02E
:104DE0002389A28861882846FFF73FFFE18828468B
:104DF000FFF72EFF23893A4631462846FFF76BFF1F
:104E0000E1882846FFF75EFFBDE8F0810146486B68
:104E100070470146886B70470146C86B7047014672
:104E2000086C70470A884B881A438B881A43CB88D2
:104E30001A430B891A434B891A438B891A43A0F8EA
:104E4000442070470021018041808180C180018120
:104E500041818181704731B1B0F8442042F4004271
:104E6000A0F8442005E0B0F84420C2F30E02A0F8F8
:104E70004420704721B1828842F00402828004E01D
:104E800082884FF6FB731A408280704721B1828876
:104E900042F00102828004E082884FF6FE731A40DD
:104EA000828070471AB183890B43838102E0838932
:104EB0008B43838170478182704702460020138AAA
:104EC0000B400BB1012000E000207047CA43028272
:104ED000704730B50246002000230024158A05EAF9
:104EE0000103958905EA010413B10CB1012000E02A
:104EF000002030BDCA430282704741EA0203A0F895
:104F0000483070471AB183890B43838102E083895B
:104F10008B438381704721B1828842F008028280EE
:104F200004E082884FF6F7731A4082807047018947
:104F30004FF6F8721140018170470A46002101893D
:104F40004FF68F73194011430181704730B5044605
:104F50000D4629462046FFF7F0FF208940F0070064
:104F6000208130BD2DE9F04104460D4616461F460E
:104F7000602D06D13B46012231462046FFF775FEE3
:104F800005E03B46012231462046FFF7A4FE2946B4
:104F90002046FFF7D2FF208940F007002081BDE8BE
:104FA000F08130B50C4600210189C9B24FF6FF757A
:104FB00005EA0325154325432943018130BD2DE929
:104FC000F04105460E4617469846002443463A46A9
:104FD00031462846FFF7E5FF2C894FF6F87004406C
:104FE00044F007044FF68F70044044F070042C81A5
:104FF000BDE8F081F0B504460D4616461F463B4617
:10500000324629462046FFF7CCFF208940F48040F5
:105010002081F0BD82884FF68F731A40828082888B
:105020000A438280704702894FF6F8731A40028162
:1050300002890A430281704702894FF67F731A4042
:10504000028102890A4302817047F0B50C46154679
:105050001E460021002200230189028B038C4FF69B
:10506000F877394021434FF6FC473A4040F20117A8
:105070003A434FF6DD773B404FF6FF7707EA0617D6
:105080002F433B43018102830384F0BD21B1828819
:1050900042F08002828004E082884FF67F731A40DB
:1050A00082807047A0F850107047000010B5044689
:1050B000FA48844208D101211020FEF775FE002134
:1050C0001020FEF771FE57E0F548844209D1012116
:1050D0004804FEF758FE00214FF40030FEF753FE5F
:1050E0004AE0F048844209D101218804FEF74BFED2
:1050F00000214FF48020FEF746FE3DE0EA4884425E
:1051000009D10121C804FEF73EFE00214FF4002022
:10511000FEF739FE30E0E548844209D10121080557
:10512000FEF731FE00214FF48010FEF72CFE23E045
:10513000DF48844208D101212020FEF735FE0021FE
:105140002020FEF731FE17E0DA48844209D1012120
:105150008807FEF718FE00214FF08040FEF713FE8F
:105160000AE0D548844207D101214005FEF70BFE35
:1051700000216005FEF707FE10BD2DE9FF4705463B
:105180000E460024A14600BFA046B08900B100BF72
:105190002C8A24F44054F08804432C82AC8941F2D8
:1051A0000C608443B0883189084371890843044303
:1051B000AC81AC8A24F44074B0890443AC82684664
:1051C000FEF774FCB548854202D0B948854202D149
:1051D000DDF80C9001E0DDF80890A88900F40040AB
:1051E00040B109EBC90000EB091031684900B0FB80
:1051F000F1F707E009EBC90000EB091031688900FD
:10520000B0FBF1F76420B7FBF0F004012009642142
:1052100001FB1078A88900F4004040B1322000EB77
:10522000C800B0FBF1F000F00700044308E03220B2
:1052300000EB08106421B0FBF1F000F00F00044314
:105240002C81BDE8FF874FF4165101600021818059
:10525000C18001810C21418100218181704710B5FD
:1052600002460020108A20F470600B884C8823438B
:105270008C882343CC8823431843108210BD00211F
:10528000018041808180C180704721B1828942F4D0
:105290000052828104E082894DF6FF731A408281B8
:1052A0007047028B02F47F420283028B0A4302831F
:1052B000704721B1828942F40042828103E08289F1
:1052C000C2F30E028281704721B1828A42F40062E9
:1052D000828204E0828A4FF2FF731A408282704712
:1052E000C1F308028280704701468888C0F3080035
:1052F0007047028A4FF6F0731A400282028A0A430C
:105300000282704721B1828942F00202828104E068
:1053100082894FF6FD731A408281704782894FF26D
:10532000FF731A40828182890A4382817047028A10
:105330004FF6DF731A400282028A0A4302827047E4
:1053400021B1028A42F48042028204E0028A4BF6D2
:10535000FF731A4002827047818941F00101818107
:10536000704721B1828A42F00802828204E0828A78
:105370004FF6F7731A4082827047028BD2B20283D3
:10538000028B42EA01220283704721B1828A42F0F5
:105390002002828204E0828A4FF6DF731A40828202
:1053A000704721B1828A42F01002828204E0828A30
:1053B0004FF6EF731A4082827047828A4FF6FB7372
:1053C0001A408282828A0A438282704721B1828A8D
:1053D00042F00202828204E0828A4FF6FD731A4094
:1053E000828270471AB1838A0B43838202E0838AE8
:1053F0008B4383827047F0B50346002400260025C6
:10540000002040F66A17B94200D100BF1846C1F328
:10541000421401F01F06012707FA06F5012C01D1FD
:105420000C3004E0022C01D1103000E014301AB12D
:1054300007682F43076002E00768AF430760F0BDCD
:1054400002460020B1F5007F00D100BF13880B4059
:105450000BB1012000E00020704701F40072B2F5AA
:10546000007F00D100BFCA430280704770B502467A
:10547000002400230025002040F66A16B14200D126
:1054800000BFC1F3421501F01F03012606FA03F322
:10549000012D13D19689334017E000000010014020
:1054A0000044004000480040004C004000500040D4
:1054B0000014014000780040007C0040022D02D121
:1054C000168A334001E0968A33400C12012606FA10
:1054D00004F41688344013B10CB1012000E0002020
:1054E00070BD10B50022002340F66A14A14200D11D
:1054F00000BF0A1201249440A3B2DC43048010BD13
:1055000010B504466FF00400FDF776FBE11704EBDD
:105510005171C1F3C701394A11701046007800EB90
:105520004001C1EBC0104FF6FF7101EAC0003449E1
:10553000088010BD0146314A12784A434FF0E023FB
:105540005A6100229A611A46126942F001021A61F8
:1055500000BF4FF0E022106900F001021AB100F420
:105560008032002AF5D04FF0E022126922F00102C9
:105570004FF0E0231A6100229A6170470146204AE9
:1055800012884A434FF0E0235A6100229A611A467A
:10559000126942F001021A6100BF4FF0E022106967
:1055A00000F001021AB100F48032002AF5D04FF069
:1055B000E022126922F001024FF0E0231A6100227A
:1055C0009A61704770B504464FF4077094FBF0F091
:1055D000C6B24FF4077094FBF0F100FB114085B2A6
:1055E00005E04FF40770FFF7C9FF701EC6B2002E2A
:1055F000F7D115B12846FFF7C1FF70BD645B0020ED
:10560000665B0020014600BF704700BFFE4A12885B
:1056100002F04002002AF9D0C2B2FB4B9A807047D8
:1056200010B588B0044601210846FEF710FB0121A1
:105630001020FEF764FB07220921F448FDF7C5FEA0
:1056400007220A21F148FDF7C0FE4FF4C060069022
:1056500002208DF81C008DF81D0000208DF81E0022
:1056600001208DF81F0006A9E848FDF723FE0294EB
:105670000020ADF80C00ADF80E00ADF81000ADF84C
:1056800014000C20ADF8120002A9DF48FFF775FDE9
:105690000121DD48FFF7F9FD012240F22551DA48EA
:1056A000FFF7A9FE25208DF8040003208DF80500E2
:1056B0008DF8060001208DF8070001A8FDF74FFACC
:1056C00008B010BD10B540F22551CF48FFF7CEFE0F
:1056D00010B3CD48FFF708FEC4B2CD48008800F4EF
:1056E0000040C8B9CA48008800F4804060B10A2C64
:1056F00003D00020C649088020E0C548008840F457
:105700000040C349088019E00D2C06D1C04800882C
:1057100040F48040BE49088010E0BD480088C0F3D6
:105720000D00BC490C54BA480088401CB849088098
:1057300008460088C72801DD0020088010BD10B58C
:1057400088B0044601218804FEF7C8FA012102202E
:10575000FEF77DFA07220A21AF48FDF736FE072241
:105760000B21AD48FDF731FE02208DF81C00002012
:105770008DF81E004FF44060069001208DF81F0048
:1057800006A9A548FDF796FD02940020ADF8140087
:105790000C20ADF812000020ADF81000ADF80E009E
:1057A000ADF80C0002A99D48FFF7E7FC01219B48DA
:1057B000FFF76BFD012240F225519848FFF71BFED1
:1057C00027208DF8040000208DF8050002208DF8B8
:1057D000060001208DF8070001A8FDF7C0F908B008
:1057E00010BD10B5044600BF40218C48FFF728FECD
:1057F0000028F9D08948001D048010BD70B504460A
:105800000D46002605E03146721CD6B2605CFFF7FB
:10581000E8FFAE42F7DB70BD70B504460D460026CA
:105820000EE0681EB04205DD205CA15D0844C1B2F7
:10583000681E21543146721CD6B2605CFFF7D1FF5E
:10584000AE42EEDB70BD2DE9F04186B007460D4655
:105850009046002400266800411D01A800F029FCA4
:105860005A222146641C01A842542146641C425419
:105870002146641C00F801806806020E2146641C63
:1058800001A8425400BF11E037F81600C0F3072208
:105890002046611CCCB201A90A5417F816202046F4
:1058A000611CCCB201A90A54701CC6B2AE42EBDB3B
:1058B000142101A8FFF7B0FF06B0BDE8F08170B574
:1058C0000146002500230024B42255480078002812
:1058D00078D05348007800F0010090B1504800782B
:1058E00080F001004E4E3070152306244D480668A6
:1058F0000E6086888E8080798871D0182044C2B26C
:105900005EE04748007800F0020090B1444800781B
:1059100080F00200424E307025230624424806687B
:105920000E6086888E8080798871D0182044C2B23B
:1059300046E03B48007800F0040090B13848007819
:1059400080F00400364E3070352306243748066850
:105950000E6086888E8080798871D0182044C2B20B
:105960002EE02F48007800F0080090B12C48007815
:1059700080F008002A4E3070452306242C48066823
:105980000E6086888E8080798871D0182044C2B2DB
:1059900016E02348007800F0100088B12048007815
:1059A00080F010001E4E30706523082421480668E0
:1059B0000E6046684E60007A0872D0182044C2B269
:1059C000002505E00DE0485D1044C2B2681CC5B278
:1059D000A542F8DB485D904201D0002070BD18461A
:1059E000FCE70020FAE708B500200090A5208DF81C
:1059F000000015208DF801009DF800009DF80110B1
:105A00000844C0B218E0000000100140000002404D
:105A10006C5B0020B86B002000040240004800408E
:105A20006E5B00206F5B0020765B00207D5B0020BA
:105A3000845B0020806C00208DF802000321684602
:105A4000FFF7DCFE0120FFF7BDFDA5208DF800006B
:105A500025208DF801009DF800009DF801100844F4
:105A6000C0B28DF8020003216846FFF7C7FE01208F
:105A7000FFF7A8FDA5208DF8000035208DF8010066
:105A80009DF800009DF801100844C0B28DF8020096
:105A900003216846FFF7B2FE0120FFF793FDA52022
:105AA0008DF8000045208DF801009DF800009DF85C
:105AB00001100844C0B28DF8020003216846FFF7C8
:105AC0009DFE0120FFF77EFDA5208DF800006520DA
:105AD0008DF801009DF800009DF801100844C0B247
